:100000000C9492010C94A4010C94A4010C94B901D9
:100010000C943C180C94A4010C94A4010C94A4011D
:100020000C94A4010C94A4010C94A4010C94D82069
:100030000C94A4010C94A4010C94A4010C94A401AC
:100040000C9459200C94A4010C942F260C94B126E6
:100050000C94A4010C94A4010C94A4010C94A4018C
:100060000C94A4010C94A401A30445104510AD0404
:10007000BA04C704D4044510D8044510E60445105A
:10008000F004FA0404054510451045101405210537
:100090002E05012407240A240D2412241A242224C4
:1000A000B324B324B3242F2432243B244424B32484
:1000B000B324B324B324B324B32450245A24662491
:1000C0006E2471247A2483248924B324B3249224B3
:1000D0009B24A62465266726A026A026A026A02667
:1000E000A026A026A026A026A026A0266D266F2644
:1000F000712673267526772679267B26A0267F26ED
:1001000081268326852687268926A0268B26084ACF
:10011000D73B3BCE016E84BCBFFDC12F3D6C74311B
:100120009ABD56833DDA3D00C77F11BED9E4BB4C72
:100130003E916BAAAABE000000803F05A84CCDB23C
:10014000D44EB93836A9020C50B9918688083CA61D
:10015000AAAA2ABE000000803F000D0A4772626C06
:1001600020312E3166205B27242720666F7220689D
:10017000656C705D0D0A00244E005B4F50543A00D0
:100180005B5645523A312E31662E3230313730319E
:1001900033313A005B544C4F3A005B4739323A00F6
:1001A0003330003238005B4700204700204D0020EC
:1001B000530020460020540033382E005B47433A5A
:1001C00047005B484C503A24242024232024472015
:1001D000244920244E2024783D76616C20244E78DA
:1001E0003D6C696E6520244A3D6C696E6520245320
:1001F0004C50202443202458202448207E202120B5
:100200003F206374726C2D785D0D0A000D0A005357
:100210006C656570696E6700526573746F72696EA4
:1002200067207370696E646C6500526573746F72D9
:10023000696E672064656661756C74730050676DE4
:1002400020456E6400436865636B204C696D69747A
:100250007300436865636B20446F6F720044697379
:1002600061626C656400456E61626C656400436147
:100270007574696F6E3A20556E6C6F636B656400C0
:10028000272448277C2724582720746F20756E6CFC
:100290006F636B00526573657420746F20636F6EBB
:1002A00074696E7565005B4D53473A00414C41528D
:1002B0004D3A007C413A007C4F763A007C57434FE0
:1002C0003A007C506E3A007C46533A007C42663AD3
:1002D000007C57506F733A007C4D506F733A005357
:1002E0006C65657000446F6F723A00436865636BBC
:1002F00000416C61726D00486F6D65004A6F670068
:10030000486F6C643A0052756E0049646C65006F0A
:100310006B0D0A000D0A005B5052423A0065727282
:100320006F723A0011241FBECFEFD8E0DEBFCDBF01
:1003300027E0A0E0B1E001C01D92A336B207E1F7CB
:100340000E94CE2D0C94E33B0C940000EBE6F0E011
:100350008081897E8083E8E6F0E080818E7F8083E3
:100360000895F999FECF92BD81BD81E08FBB80B524
:1003700008951F920F920FB60F9211242F933F935F
:100380004F935F936F937F938F939F93AF93BF939D
:10039000EF93FF9380911B01813049F080916B05B1
:1003A000811105C00E94FF2A81E00E94C717FF91BA
:1003B000EF91BF91AF919F918F917F916F915F91DD
:1003C0004F913F912F910F900FBE0F901F90189556
:1003D00093B196718091710186FD02C086E19827E4
:1003E000992349F091FB882780F992FD82609071F2
:1003F00019F08460089580E0089584B1897E84B9FD
:1004000085B1866185B98091710183FF0BC08091B0
:100410006B00866180936B0080916800816080939F
:10042000680008950C94A60162E071E089E991E00A
:100430000C94E0178F929F92AF92BF92CF92DF926F
:10044000EF92FF920F931F93CF934B017A016C01B0
:10045000C40ED51E8C01C0E05B01A81AB90AC50103
:10046000800F911F0C151D0599F00E94B101C1115B
:1004700008C02C2FCC0F330B232F221F2227221F23
:1004800001C021E0C22FC80FF80181938F01E7CF8F
:10049000C4018E0D9F1D0E94B10121E030E0C817FC
:1004A00011F020E030E0C901CF911F910F91FF9032
:1004B000EF90DF90CF90BF90AF909F908F90089576
:1004C000F894F999FECF92BD81BD81E08FBB80B5D4
:1004D0008627482F082E000C550B262F30E02423AA
:1004E0003523232B39F06F3F19F060BD84E006C03F
:1004F00084E104C0882321F060BD84E28FBBF99AB7
:10050000789408958F929F92AF92BF92CF92DF928C
:10051000EF92FF920F931F93CF937C014A016B01DF
:10052000C40ED51E8B01C0E05C01A61AB70AC80133
:100530008A0D9B1D0C151D0599F0C11108C02C2FAB
:10054000CC0F330B232F221F2227221F01C021E0B3
:10055000F80161918F01C22FC60F0E946002E7CFA0
:100560006C2FC701880D991DCF911F910F91FF909E
:10057000EF90DF90CF90BF90AF909F908F900C94B2
:10058000600290911C01911108C0811102C0439832
:1005900002C086FD439A1092260108952F923F9241
:1005A0004F925F926F927F928F929F92AF92BF9283
:1005B000CF92DF92EF92FF920F931F93CF93DF932F
:1005C000CDB7DEB7CA54D1090FB6F894DEBF0FBE5F
:1005D000CDBF8AE3E1ECF1E0DF011D928A95E9F7F6
:1005E0008BE0E1E8F1E0A2ECB1E001900D928A9598
:1005F000E1F780911307843211F00C94691081E0C7
:100600008093C2011092C30183E08A8FB1E0BBA343
:10061000212C312C18AA1FA6C12C1B8E1F8EDD2465
:10062000D3946AE0A62EB12C0EE571E6872E73E016
:10063000972E8A8DE82FF0E0ED5EF84FE080EE20F7
:1006400009F43EC29FEB9E0D9A3110F00C943510C8
:100650008F5F8A8FBE016A5E7F4FCE014A960E94ED
:10066000232B882311F40C9437104E885F88688CF4
:10067000798CC301B2010E944E3B0E948C38162F28
:1006800070E080E090E00E94BD389B01AC01C301A6
:10069000B2010E94133720E030E048EC52E40E949F
:1006A0006B3A0E94D83A0E948C38CB01E7E4EE16F0
:1006B00029F0FDE4EF1609F4EAC034C1183209F458
:1006C000C5C020F5143168F4113108F08AC0143027
:1006D00009F452C008F464C01A3009F445C00C94FF
:1006E00045101C3109F440C050F4163110F00C9440
:1006F000451025E1211B2093C40126E0ACC01E312A
:1007000099F1163209F44CC00C9445101D3309F4CC
:1007100097C0A8F4153381F140F41B3209F47AC074
:10072000113309F477C00C9445101C3310F00C946D
:1007300045106AEC610F6093C80129E08CC01C353C
:1007400038F41A3508F053C0103581F10C94451077
:100750001C3551F01F3510F00C944510202F211B33
:100760002093C30125E077C0009731F42F8D21112C
:100770000C94391031E03F8F1093C101212F2D7F50
:100780002C3119F01C3509F063C0009721F00A974D
:1007900011F00C944510610F6093C10120E060C01E
:1007A0006F8D61110C943910A2E0AF8F1093C201CC
:1007B000163209F04FC08431910559F08E31910500
:1007C00041F08832910529F08233910511F00C94A3
:1007D0004510B5010E94803B66576093C20121E03D
:1007E0003FC06FEE610F6093C60122E034C0892BD9
:1007F00031F466EA610F6093C50123E031C06A30CD
:10080000710511F00C9445101A3511F40C94451033
:1008100024E026C0BF8DB1110C943910113331F48E
:100820001092C70128E0E3E0EF8F1AC00A9711F099
:100830000C944510D092C70128E0F3E0FF8F10C060
:10084000892B11F00C9445102AE00AC027E003C060
:1008500020E001C021E0892B19F087E10C946D1094
:1008600081E090E002C0880F991F2A95E2F72FA53A
:1008700038A928233923232B19F085E10C946D1016
:100880002FA538A9282B392B38AB2FA7D2CE892BEF
:1008900021F7163018F4133058F016C0183010F441
:1008A0000C9445101A30F0F01E3159F00C9445109C
:1008B000112319F0113001F104C033E03093C90164
:1008C0001BC01093C90118C0143021F0153031F04D
:1008D00080E101C080E28093CB0102C01092CB0185
:1008E0008CE00BC0193021F080E48093CA0102C073
:1008F0001092CA018DE001C08BE0A1E0B0E002C01F
:10090000AA0FBB1F8A95E2F72FA538A92A233B23FC
:10091000232B09F0B2CFEFA5F8A9EA2BFB2BF8ABFC
:10092000EFA787CE8E2DEE0C990BAA0BBB0BFC010B
:10093000E654F109E531F10510F00C944510EC5C3A
:10094000FF4F0C94B63B4092CD015092CE01609285
:10095000CF017092D00180E08DC04092D1015092C1
:10096000D2016092D3017092D401FC2DF160CF2EA0
:1009700081E080C04092D5015092D6016092D701AB
:100980007092D8012C2D2260C22E82E073C040925A
:10099000D9015092DA016092DB017092DC013C2DAA
:1009A0003460C32E83E066C01093DD0184E062C032
:1009B000C301B2010E9485386093DE017093DF01AC
:1009C0008093E0019093E10185E054C04092E20100
:1009D0005092E3016092E4017092E50186E04AC022
:1009E0004092E6015092E7016092E8017092E901BD
:1009F00087E040C04092EA015092EB016092EC0126
:100A00007092ED0188E036C020E030E04FE753E41B
:100A1000C301B2010E942B3A181614F40C943B1037
:100A20001093EE0189E026C04092EF015092F00150
:100A30006092F1017092F2016B8D61606B8F8AE0C0
:100A400019C04092F3015092F4016092F501709246
:100A5000F6018B8D82608B8F8BE00CC04092F7018A
:100A60005092F8016092F9017092FA019B8D9460A6
:100A70009B8F8CE0EE24E394F12C082E02C0EE0C48
:100A8000FF1C0A94E2F7970122213321232B11F056
:100A90000C943D10D40102C0B595A7958A95E2F754
:100AA000A0FF0BC020E030E0A901C301B2010E9409
:100AB000093887FF02C00C943F102E283F28B9CD7B
:100AC000BB8DBB2329F0EF8DE11102C0F2E0FF8F57
:100AD00025FE0FC08091DE019091DF01A091E00121
:100AE000B091E10181389649A849B10514F00C9400
:100AF00041103BA1332301F120FC02C00C944B10A8
:100B00008091C401813009F03FC023E333E34BEC13
:100B100051E46091CD017091CE018091CF0190910F
:100B2000D0010E946B3A6093CD017093CE01809307
:100B3000CF019093D00128C08091C301813071F41E
:100B40006F8D623009F58091C2018035E9F088230C
:100B5000D9F020FC02C00C944B1016C08091820189
:100B6000811112C020FCCCCF809190019091910115
:100B7000A0919201B09193018093CD019093CE0109
:100B8000A093CF01B093D00130FC10C080918C01B4
:100B900090918D01A0918E01B0918F018093EA0117
:100BA0009093EB01A093EC01B093ED018091C10112
:100BB000843039F426FC03C08CE10C946D10E89469
:100BC00026F88091C601882369F0813029F48BAF23
:100BD0001DAA92E09BAB0BC01BAEA2E0ADABB1E097
:100BE000BBAB05C0E2E0EBAFF1E0FDAB1BAA80912F
:100BF000C401813021F02F8D2330A9F52BC04FEE99
:100C0000E42E41E0F42E00E010E03B8DA32EB12C49
:100C1000C501002E02C0959587950A94E2F780FFE2
:100C200010C023E333E34BEC51E4D7016D917D9188
:100C30008D919C910E946B3AF7016083718382834E
:100C400093830F5F1F4FF4E0EF0EF11C033011058B
:100C5000F9F6D1CF8091C701813029F42B8D243052
:100C600011F00C9443108CE0E5EAF1E0DE011196FE
:100C700001900D928A95E1F78FA598A991FD09C081
:100C80009091C1019FA39A30C9F09C3509F4AFC07F
:100C900010C18091C801873018F08DE10C946D105F
:100CA00090918701981761F3BE016F5F7F4F0E949B
:100CB000DB24882311F40C945910E2CFAB8DA111E1
:100CC00003C08AE10C946D10C10180759927892BAE
:100CD00009F472CF6091E2017091E3018091E40127
:100CE0009091E5010E944E3B0E948C386730A8F637
:100CF0008091DD01843141F0823011F00C94451077
:100D000027FE02C00C944510BFEA2B22662319F07F
:100D100061506DA703C0E091C801EDA761ED71E0DE
:100D20008DA50E94DB24882311F40C945910D090D7
:100D3000DD014090BD015090BE016090BF017090F8
:100D4000C00101ED11E039E9A32E31E0B32EE12C11
:100D5000F12CFB8D8F2E912CC4010E2C02C0959589
:100D600087950A94E2F780FF34C024E1D21228C0AC
:100D7000D50158962D913D914D915C915B976D9168
:100D80007D918D919C910E941337F801268D378DAE
:100D900040A151A10E941337D8016D937D938D938B
:100DA0009C931397B2E0EB16F10499F4A30192011E
:100DB0000E941337F801608371838283938309C093
:100DC000F801868D978DA0A1B1A180839183A28324
:100DD000B383FFEFEF1AFF0A0C5F1F4F24E0A20E50
:100DE000B11C33E0E316F10409F0B6CF2FC16B8DCF
:100DF000662309F466CF4090BD015090BE0160901B
:100E0000BF017090C0010FEE11E0A12CB12CE12CBC
:100E1000F12C862E912CF501EF57FE4FC4010E2CBC
:100E200002C0959587950A94E2F780FF2BC0A1E058
:100E3000B0E0AC0FBD1FAA0DBB1D2D913D914D9192
:100E40005C91608D718D828D938D0E941337D801D6
:100E50002D913D914D915C910E941337F801608373
:100E6000718382839383F2E0EF16F104A1F4A3016E
:100E700092010E941337D8016D937D938D939C93BB
:100E8000139709C080A991A9A2A9B3A9F8018083E9
:100E90009183A283B383FFEFEF1AFF0A24E0A20E2F
:100EA000B11C0C5F1F4F33E0E316F10409F0B3CF20
:100EB000CCC06F8D633071F48FA18E3109F48BC07B
:100EC000853309F4BCC08C3109F0BFC061ED71E01D
:100ED00086E084C09B8D992379F3D090C501409022
:100EE000BD015090BE016090BF017090C00129E922
:100EF000A22E21E0B22E0FEE11E0DE0111964D017F
:100F0000E12CF12CE92FF0E0FEA7EDA78DA59EA521
:100F10000E2C02C0959587950A94E2F780FD0BC0D0
:100F2000F50180819181A281B381F8018083918351
:100F3000A283B3833FC0FFA1F533E1F1D11029C0F3
:100F4000D50158962D913D914D915C915B97F4019F
:100F500060817181828193810E941437D8012D9123
:100F60003D914D915C910E941437F801608371832B
:100F700082839383F2E0EF16F104E1F4A30192017E
:100F80000E941437D8016D937D938D939C93139792
:100F900011C0F5012081318142815381D8016D91C9
:100FA0007D918D919C910E941437F801608371832B
:100FB00082839383FFEFEF1AFF0A24E0A20EB11C95
:100FC0000C5F1F4F34E0830E911C63E0E616F104C2
:100FD00009F09CCF71CF61ED71E087E00E94DB24C6
:100FE000882311F40C9459108B8D811103C01DA618
:100FF0001F8E2CC020E030E080E090E0AB8D4A2FC7
:1010000050E0BA01082E02C0759567950A94E2F780
:1010100060FD0EC0F901EF57FE4F808C918CA28CC1
:10102000B38CF901EF53FE4F808A918AA28AB38A6A
:1010300001962C5F3F4F8330910519F706C08091D0
:10104000C201823010F00C9447101DA6B091C2016D
:10105000BFA3B03529F4EB8DE1110C94491074C293
:10106000FF8DF23009F070C22FA1211104C03B8D19
:1010700031116AC22BC020E030E0A9016091CD019E
:101080007091CE018091CF019091D0010E940938DA
:10109000882311F40C944B106FA16C3809F43EC2F4
:1010A00040F46230A9F06330B1F0613009F04CC215
:1010B0000AC08FA18E3809F431C208F42CC28F38CF
:1010C00009F429C241C29B8D91113EC21F8E3CC2C0
:1010D000ABA1A460ABA3BB8DBB2309F4F2CDEBA9FC
:1010E0000E2F10E03DA9232F30E03AA729A781E079
:1010F00090E07C010DA802C0EE0CFF1C0A94E2F700
:1011000002C0880F991FEA95E2F7E82AF92A8B2F87
:1011100090E08E219F21892B09F4BFC7F801EE0FC3
:10112000FF1FEE0FFF1FEF53FE4FD801AA0FBB1F8B
:10113000AA0FBB1FA756BE4F2D913D914D915C91BB
:1011400066A577A580A991A90E9413374B015C0180
:10115000E9A5FAA5EE0FFF1FEE0FFF1FEF53FE4F9D
:10116000A9A5BAA5AA0FBB1FAA0FBB1FA756BE4FA2
:101170002D913D914D915C9166A577A580A991A98E
:101180000E9413376FAB78AF89AF9AAF310160E837
:101190006622772427FEEFC0E89427F84CE050E061
:1011A0006FEE71E089E991E00E94D63B892B11F442
:1011B00081E293C78091C4018130B1F423E333E32A
:1011C0004BEC51E46091E6017091E7018091E801F8
:1011D0009091E9010E946B3A6093E6017093E701F8
:1011E0008093E8019093E9014090E6015090E70177
:1011F0006090E8017090E901A5019401C501B40176
:101200000E946B3A23966CAF7DAF8EAF9FAF239752
:101210002FA938AD49AD5AADCA01B9010E946B3A48
:1012200027966CAF7DAF8EAF9FAF279720E030E061
:1012300040E850E4C301B2010E946B3AA30192015D
:101240000E946B3A23962CAD3DAD4EAD5FAD23971A
:101250000E94133727962CAD3DAD4EAD5FAD27975D
:101260000E9413376B017C0120E030E0A9010E944D
:10127000093887FD14C7C701B6010E940A3B6B01FC
:101280007C0127962CAD3DAD4EAD5FAD27972396E3
:101290006CAD7DAD8EAD9FAD23970E9414370E943B
:1012A0000A3B9B01AC01C701B60190580E9413385C
:1012B0006B017C018FA1833021F4F7FAF094F7F8E9
:1012C000F09420E030E0A901C301B2010E94093886
:1012D00087FF0FC0F7FAF094F7F8F094D301C2013A
:1012E000B0588093E6019093E701A093E801B09392
:1012F000E901000F111F000F111F0F521E4FA70110
:1013000096016FA978AD89AD9AAD0E946B3A9B01A9
:10131000AC01C501B4010E94133720E030E040E089
:101320005FE30E946B3AD8016D937D938D939C93FC
:10133000139709A51AA5000F111F000F111F0F52B7
:101340001E4FA7019601C501B4010E946B3A9B0193
:10135000AC016FA978AD89AD9AAD0E94143720E039
:1013600030E040E05FE30E946B3AF80160837183F4
:1013700082839383E9C0D12CEC20FD20EF2809F46F
:1013800090C6F1EF2F228091C401813009F47CC016
:10139000F801EE0FFF1FEE0FFF1FEF52FE4FC08050
:1013A000D180E280F380A7019601C501B4010E94BB
:1013B00013372B013C01E9A5FAA5EE0FFF1FEE0F35
:1013C000FF1FEF52FE4F80819181A281B38189A7D7
:1013D0009AA7ABA7BCA79C01AD016FA978AD89AD59
:1013E0009AAD0E9413374B015C01A3019201C30126
:1013F000B2010E946B3A2B013C01A5019401C50189
:10140000B4010E946B3A9B01AC01C301B2010E947E
:1014100014370E940A3B4B015C01A7019601C701EA
:10142000B6010E946B3A6B017C0129A53AA54BA538
:101430005CA5CA01B9010E946B3A9B01AC01C701CE
:10144000B6010E9414370E940A3B6B017C01609335
:10145000E6017093E7018093E8019093E9019B0115
:10146000AC01C501B4010E9413374B015C01E89443
:10147000B7F82AE037ED43EA5BE3C501B4010E9407
:101480002B3A18165CF160C091ECE92E91E0F92E30
:10149000C601062C02C0959587950A94E2F780FF55
:1014A00012C023E333E34BEC51E4D70150966D9126
:1014B0007D918D919C9153970E946B3AF701608BBF
:1014C000718B828B938BFFEF6F1A7F0A24E0E20E01
:1014D000F11C33E063167104D9F65ACF20E030E0F6
:1014E00040E05FE3C501B4010E942B3A18160CF4EA
:1014F0005FCE2FE632E143E85AE3C701B6010E940E
:101500006B3A9B01AC01C501B4010E942B3A18163D
:101510000CF44ECE19C06BA160616BA38FA18E58E5
:10152000823018F48BA188608BA39B8D992309F4DA
:10153000C8CB4CE050E06FEE71E089E991E00E9489
:10154000D63B892B09F434CE2BA12170ABA1C1016C
:10155000A0FF02C08E7D02C08E7D9C7FBF8DB11129
:10156000937E892B09F09FC58E01035F1F4F89E091
:10157000F80111928A95E9F7222309F44BC08FA54F
:1015800098A9867B892B09F090C58091C10185338C
:1015900011F081118AC580918C0190918D01A091EB
:1015A0008E01B0918F01898B9A8BAB8BBC8B909104
:1015B0008A0180918901892B4091CD015091CE0102
:1015C0006091CF017091D0014D875E876F87788BD6
:1015D00084608D8B8091710185FF06C08FEE91E054
:1015E0000E948A32811163C5B8018FEE91E00E949A
:1015F000C23680911B0181115EC50E944F29892B43
:1016000009F459C580E280931B010E9474180E945E
:10161000202351C580917101F0908A0181FF26C07D
:101620009FA19150933018F0FBA1F064FBA32B8D88
:10163000222339F03F8D323021F46BA160686BA317
:1016400015C080E1F81212C09091810191508BA1D8
:101650008074933030F4882349F09BA190629BA35F
:1016600005C0811103C0ABA1A062ABA38091DE01D4
:101670009091DF01A091E001B091E101809395018B
:1016800090939601A0939701B09398018091C30124
:1016900080938201882311F088E08D8B8091CD01A9
:1016A0009091CE01A091CF01B091D0018093900193
:1016B00090939101A0939201B09393018D879E879F
:1016C000AF87B88B8090EA019090EB01A090EC017D
:1016D000B090ED01A501940160918C0170918D0194
:1016E00080918E0190918F010E940938BBA1B07446
:1016F000EB2E811103C0EBA1E5FF20C0FF2071F0AC
:10170000FBA1F7FD0BC0EE2021F040E050E0BA0154
:1017100002C0B501A4018F2D0E94C5328091EA015B
:101720009091EB01A091EC01B091ED0180938C01BF
:1017300090938D01A0938E01B0938F01E1100CC0A6
:1017400080918C0190918D01A0918E01B0918F01BB
:10175000898B9A8BAB8BBC8B8091EE01809394012B
:101760008091CB0190918A01981751F049895A894B
:101770006B897C890E94C5328091CB0180938A015C
:101780009D8980918A01892B8D8B8091CA019091CE
:1017900089019817D1F090911B01923051F02B964E
:1017A0008FAF2B970E9487162B968FAD2B970E9499
:1017B000C1028091CA01811103C01092890105C044
:1017C00090918901892B809389019D89809189015C
:1017D000892B8D8B8091C101843049F56091E201A4
:1017E0007091E3018091E4019091E50120911B014A
:1017F0002230E9F028966FAF289729967FAF299776
:101800002B968FAF2B972A969FAF2A970E94871609
:1018100040E028966FAD289729967FAD29972B96A3
:101820008FAD2B972A969FAD2A970E94BB2A809155
:10183000C601809385018091C401809383012F8D1F
:10184000233071F58091C70180938601811108C012
:101850001092F7011092F8011092F9011092FA011A
:10186000C090F701D090F801E090F901F090FA01F2
:10187000A70196016091BD017091BE018091BF01E9
:101880009091C0010E940938882351F0C092BD0197
:10189000D092BE01E092BF01F092C0010E942818D0
:1018A0008091C80190918701981769F08093870112
:1018B0008CE0FE013196A5EAB1E001900D928A9587
:1018C000E1F70E9428188091C501809384018091DE
:1018D000C1018632F1F138F48C3109F18E31F9F021
:1018E0008A3069F04FC08C35D1F1863609F441C099
:1018F000883209F047C069E971E087E02DC061EDE9
:1019000071E08DA50E94BF24809187013DA58313BE
:1019100039C08CE0E1EDF1E0A5EAB1E025C08D89A8
:1019200081608D8B6F8D662329F0B8018FEE91E079
:101930000E94C236B80181ED91E00E94C2368CE06F
:10194000E1EDF1E0A9E9B1E001900D928A95E1F7AE
:1019500019C069E971E086E00E94BF2413C08CE0E1
:10196000EFEEF1E0A1EBB1E001900D928A95E1F785
:1019700007C08CE0E1EBF1E0DF011D928A95E9F709
:101980000E9428188091C20180938101803509F45A
:101990001EC3BF8DB23009F01AC3813021F4BE01DD
:1019A000635F7F4F06C0811109C08D8981608D8B77
:1019B000B8018FEE91E00E94C23600C3825082309F
:1019C00008F095C28091E6019091E701A091E801AD
:1019D000B091E9018F8F98A3A9A3BAA3ABA994E012
:1019E000A99F70011124F701E756FE4FF8A7EFA356
:1019F00097012F523E4F3EA72DA7D9014D905D90E4
:101A00006D907C902081318142815381C301B2016C
:101A10000E9414376FA778AB89AB9AABEDA9B4E0FD
:101A2000EB9F80011124980127563E4F3CAB2BAB16
:101A3000C8018F529E4F9EAB8DABDC018D909D9067
:101A4000AD90BC90F9012081318142815381C50163
:101A5000B4010E9414376FAB78AF89AF9AAF77FAB1
:101A6000709477F87094D501C401B0588B8F9C8F17
:101A7000AD8FBE8FF701E151FE4F2FA538A949A9BF
:101A80005AA960817181828193810E9413376B0111
:101A90007C01F801E151FE4F2FA938AD49AD5AAD97
:101AA00060817181828193810E9413374B015C01B7
:101AB000A7019601C301B2010E946B3A69A77AA7F8
:101AC0008BA79CA7A50194016B8D7C8D8D8D9E8D20
:101AD0000E946B3A9B01AC0169A57AA58BA59CA5D8
:101AE0000E94143769A77AA78BA79CA7A501940128
:101AF000C301B2010E946B3A4B015C01A701960140
:101B00006B8D7C8D8D8D9E8D0E946B3A9B01AC01FF
:101B1000C501B4010E94133729A53AA54BA55CA5C0
:101B20000E9493376B017C019BA192FF13C02DEBA8
:101B300037E346E055EBC701B6010E942B3A87FD1B
:101B40001DC02BED3FE049EC50E4C701B6010E94F7
:101B5000133712C02DEB37E346E055E3C701B6015A
:101B60000E940938181654F02BED3FE049EC50E480
:101B7000C701B6010E9414376B017C01809065019A
:101B800090906601A0906701B09068012F8D38A1F8
:101B900049A15AA1CA01B9010E941437A5019401B3
:101BA0000E9413379B01AC01C501B4010E946B3A3E
:101BB0000E940A3B4B015C0120E030E040E05FE323
:101BC000C701B6010E946B3A2F8D38A149A15AA1D5
:101BD0000E946B3A9F77A50194010E9413380E94DE
:101BE000F8380E948C387AA769A7DB01AB2B09F47F
:101BF000D6CE1D894B01A12CB12C13FF12C0C501FB
:101C0000B4010E94BB389B01AC016D857E858F8538
:101C100098890E946B3A6D877E878F87988B177F94
:101C20001D8BC501B4010E94BB384B015C019B01B7
:101C3000AC01C701B6010E9413386BA37CA38DA32E
:101C40009EA3EBADB4E0EB9FC00111248C010756BD
:101C50001E4FFC01E151FE4FD8012D913D914D9158
:101C60005C9160817181828193810E941337A5010B
:101C700094010E94133827966CAF7DAF8EAF9FAF53
:101C800027972BA13CA14DA15EA1CA01B9010E94D9
:101C90006B3A9B01AC0160E070E080E090E40E9450
:101CA00013376B017C012BEA3AEA4AE25EE36BA14F
:101CB0007CA18DA19EA10E946B3A4B015C0120E0AA
:101CC00030E040E850E4C701B6010E9414379B01A0
:101CD000AC01C501B4010E946B3A6BAF7CAF8DAF14
:101CE0009EAF20E030E040E05FE3C701B6010E9414
:101CF0006B3A23966CAF7DAF8EAF9FAF23971F8E4D
:101D000022242394312CE9A5FAA52E163F0609F4C6
:101D100046CEBF8DBC3008F044C023962CAD3DADFF
:101D20004EAD5FAD23976B8D7C8D8D8D9E8D0E940A
:101D30006B3A6B017C012BAD3CAD4DAD5EADC3018B
:101D4000B2010E946B3AA70196010E9414377B01F1
:101D50006C0123962CAD3DAD4EAD5FAD2397C30115
:101D6000B2010E946B3A4B015C012BAD3CAD4DAD15
:101D70005EAD6B8D7C8D8D8D9E8D0E946B3A9B012F
:101D8000AC01C501B4010E9413372B013C01EF8D5A
:101D9000EF5FEF8F470156018B8E9C8EAD8EBE8E0E
:101DA00065C0B10180E090E00E94BB382BA13CA14E
:101DB0004DA15EA10E946B3A6B017C010E940E381E
:101DC0006B8F7C8F8D8F9E8FC701B6010E94FC3A6E
:101DD0004B015C01ADA5BEA5CD90DD90ED90FC90D2
:101DE000F7FAF094F7F8F094ADA9BEA98D919D9102
:101DF0000D90BC91A02D8F8F98A3A9A3BAA32B8D72
:101E00003C8D4D8D5E8DC701B6010E946B3A2B0152
:101E10003C01A50194016F8D78A189A19AA10E942E
:101E20006B3A9B01AC01C301B2010E9414372B0134
:101E30003C01A5019401C701B6010E946B3A6B01F8
:101E40007C012B8D3C8D4D8D5E8D6F8D78A189A190
:101E50009AA10E946B3A9B01AC01C701B6010E9496
:101E600013376B8F7C8F8D8F9E8F1F8EA3019201F6
:101E70006FA578A989A99AA90E941437EFA1F8A59E
:101E800060837183828393832B8D3C8D4D8D5E8D1A
:101E90006FA978AD89AD9AAD0E941437ABA9BCA9E2
:101EA0006D937D938D939C93139727962CAD3DADA9
:101EB0004EAD5FAD2797F80160817181828193817A
:101EC0000E941437D8016D937D938D939C93139743
:101ED000BE01635F7F4F89E991E00E94C236809125
:101EE0001C0181116BC0BFEF2B1A3B0A0CCF8D89EF
:101EF00084608D8B80911B01823009F45FC00E9449
:101F0000871680911C01811162C0FBA1F071FF2E28
:101F1000109220012BA123FB882780F90E948F10AB
:101F200086B1807290910101891749F084E00E9486
:101F3000C7170E947B1580E00E948F1048C0B8012F
:101F40008FEE91E00E94C23681E080931A0182E018
:101F50000E94D7170E947B1580911C01811137C008
:101F600080911B018111F6CF80911A01813081F49B
:101F7000FF2051F08CE0E2E0F1E0AEE0B1E0019052
:101F80000D928A95E1F707C085E00E94C71703C04C
:101F900081E08093200110921A0180E00E948F104E
:101FA0000E947B150E94A5200E945F290E94BA28EA
:101FB0000E94ED3280912001811188C08CE0EFEE0B
:101FC000F1E0A9E9B1E001900D928A95E1F78091E5
:101FD000C90180938801882309F47FC00E94871675
:101FE0008091880190911B01833041F49230D1F1AE
:101FF00088E00E94D7170E947B1534C081E080934F
:102000008101109285011092840110928201109238
:10201000870110928A011092890184E6809322013F
:102020008093230180932401923091F065EA71E05E
:1020300080E00E94DB248823E1F10E94281840E020
:1020400050E0BA0180E00E94382380E00E94C10283
:1020500086EA92E00E94AB288DE392E00E94AB28D2
:102060000E948028109288012FC081E036C082E053
:1020700034C088E132C086E230C089E12EC084E0FD
:102080002CC08BE12AC085E228C084E126C08EE105
:1020900024C08FE122C086E120C080E21EC082E21F
:1020A0001CC083E21AC084E218C080E116C08FE031
:1020B00014C087E012C08CE0EFEEF1E0A9E9B1E0D6
:1020C00001900D928A95E1F780E007C00E9414020A
:1020D0007ECF1A8E1BA20C940803C65BDF4F0FB68F
:1020E000F894DEBF0FBECDBFDF91CF911F910F914E
:1020F000FF90EF90DF90CF90BF90AF909F908F9028
:102100007F906F905F904F903F902F9008950E9426
:102110004F29892B19F082E00C94D717089510925B
:1021200001019091710197FD03C090E2909301012C
:10213000882331F09091010180E289278093010189
:1021400008958F929F92AF92BF92CF92DF92EF92BB
:10215000FF920F931F93CF93DF93CDB7DEB72D97E9
:102160000FB6F894DEBF0FBECDBF6B017C01042F0C
:1021700020E030E0A9010E94093887FF07C08DE206
:102180000E94DB26F7FAF094F7F8F094102F123043
:1021900060F020E030E048EC52E4C701B6010E9454
:1021A0006B3A6B017C011250F2CF00FF0AC020E0B5
:1021B00030E040E251E4C701B6010E946B3A6B0186
:1021C0007C0120E030E040E05FE3C701B6010E94FF
:1021D00014370E94853810E03AE0832E912CA12C10
:1021E000B12C611571058105910591F0EE24E39400
:1021F000F12CEC0EFD1EE10EF11CA50194010E94D4
:10220000943B605DF7016083B901CA011F5FE9CFAC
:1022100080E3101748F4E1E0F0E0EC0FFD1FE10F60
:10222000F11D80831F5FF5CF101314C011E0100F54
:1022300080E3FE01E00FF11D81830CC0101303C089
:102240008EE20E94DB26FE01E10FF11D80810E94DB
:10225000DB2611501111F2CF2D960FB6F894DEBF88
:102260000FBECDBFDF91CF911F910F91FF90EF90E7
:10227000DF90CF90BF90AF909F908F900895209166
:10228000710120FF08C02BE832E441E25DE30E94C7
:102290006B3A41E001C040E00C94A1103F924F9294
:1022A0005F926F927F928F929F92AF92BF92CF92E6
:1022B000DF92EF92FF920F931F93CF93DF93CDB7EF
:1022C000DEB7A4970FB6F894DEBF0FBECDBF109156
:1022D0006B05112391F181E080931B018CEA92E060
:1022E0000E94AB28812F0E9485280E94142785EF29
:1022F00091E0019739F0EFE9FFE03197F1F700C085
:102300000000F7CF1150123030F08FB7F8941092D0
:102310006B058FBF12C086EA92E00E94AB2884E969
:1023200092E00E94AB280E94802880E10E94CD1795
:1023300080916A0584FFFCCFE8CF10916A051123D4
:1023400009F4BEC214FF04C081E080931C01BBC32A
:1023500010FFC0C18CE0E2E0F1E0DE01599601908F
:102360000D928A95E1F7BE01675E7F4FCE010D9613
:102370000E94E0178CE30E94DB2680911B018830CD
:10238000E1F058F4813099F1A8F0823099F184306D
:1023900009F043C087EF92E03EC0803229F118F483
:1023A000803171F03AC0803441F18038B1F58FED61
:1023B00092E031C08AE093E02EC086E093E02BC02B
:1023C00080911D0187FD10C080E093E00E94AB2842
:1023D00080911D0180FF06C080E31AC082FF17C0F4
:1023E00085FFFACF81E314C08CEF92E014C081EF37
:1023F00092E011C08BEE92E00EC085EE92E00E945A
:10240000AB2880911D0183FFE9CF83E301C082E304
:102410000E94DB2602C00E94AB2880916001F82F49
:10242000F170BF2E80FD15C04090BD015090BE01DF
:102430006090BF017090C00145EA842E41E0942E67
:102440009E012F5F3F4F7901CE010D966C0100E098
:102450002CC080912701882339F388ED92E03FC09A
:10246000A30192010E941437F70160837183828374
:102470009383B110F2CFF7012081318142815381E2
:10248000F60160817181828193810E941337F60188
:1024900060837183828393830F5FF4E0EF0EF11CFE
:1024A00024E0C20ED11C0330B1F0F40161917191AE
:1024B000819191914F0120853185428553850E94FC
:1024C0001437F7016083718382839383023041F272
:1024D000BB2089F2E1CFB110C0CF81ED92E00E9424
:1024E000AB28CE010D960E94F7268091600181FFF6
:1024F0001FC08CEC92E00E94AB289091390580912E
:102500001802981710F0815F01C08150891B0E944A
:1025100085288CE20E94DB268091A4069091A50676
:10252000981710F0805801C08150891B0E9485289F
:1025300087EC92E00E94AB2880911B018C7749F0D8
:102540006091510570915205809153059091540509
:1025500003C060E070E0CB010E943F118CE20E945A
:10256000DB26609128017091290180912A019091C8
:102570002B0140E00E94A1100E94E801F82E0E9469
:102580002D18082F86B1982F907280910101E92EA5
:10259000E8268F2D802B8E2959F182EC92E00E9443
:1025A000AB28EE2019F080E50E94DB26FF2079F0B1
:1025B000F0FE03C088E50E94DB26F1FE03C089E53A
:1025C0000E94DB26F2FE03C08AE50E94DB26002380
:1025D00079F000FF03C082E50E94DB2601FF03C003
:1025E00088E40E94DB2602FF03C083E50E94DB260D
:1025F00080912701882321F081508093270118C002
:1026000080911B018C7711F08DE101C089E08093EE
:10261000270180912601811103C081E0809326016A
:102620008CEB92E00E94AB28CE0101960E94F72627
:1026300000912601002321F001500093260142C0A1
:1026400080911B018C7711F083E101C089E08093B8
:10265000260187EB92E00E94AB28809122010E9424
:1026600085288CE20E94DB26809123010E94852828
:102670008CE20E94DB26809124010E9485288091B3
:10268000B00087FF05C02D9902C001E001C002E043
:10269000439B03C0FF24F39403C0002399F0F12C63
:1026A00083EB92E00E94AB28002339F0013011F453
:1026B00083E501C083E40E94DB26FF2019F086E455
:1026C0000E94DB268EE30E94DB260E94142781E015
:1026D0000E94CD17812F887E09F469C080911B016B
:1026E000982F937009F052C08872A1F080911D015B
:1026F000807C81F40E941B2082E080931F018091E6
:102700001B01803239F417FD05C080911D018068DE
:1027100080931D0180911B01811103C091E0909372
:102720001D0116FF07C085FD05C090911D01906435
:1027300090931D0113FF05C0807E19F480E1809302
:102740001B0115FF23C086EA92E00E94AB2882E5B8
:1027500092E00E94AB280E94802880911D0187FD95
:1027600010C090911B01903439F483FF07C0837E21
:10277000826080931D0102C0903819F080E480933C
:102780001B0180911D01806280931D0117FF0CC009
:1027900080911B01813029F480911D018560809317
:1027A0001D0180E880931B0188EE0E94CD1711FF68
:1027B00044C0812F8876F1F580911B01803471F43B
:1027C00080911D0185FD0AC084FF03C010921B018A
:1027D00005C082FF03C0886080931D0180911B01AA
:1027E000882381F084FF26C090911D0190FF22C0B4
:1027F000803141F480912501882321F08860809305
:10280000250118C010921F010E944F29892B71F0D9
:1028100080911D0186FD0AC010921D0188E0809301
:102820001B010E9474180E94202304C010921D01F5
:1028300010921B0182E00E94CD1712FF41C08091CF
:102840001B01807D90911D018823D9F080911E018C
:10285000811117C097FD15C00E941B20809118029E
:10286000809317020E94702980911F0181FF05C08B
:1028700090911D01916090931D01897F80931F01AC
:102880001CC097FF0AC010921F010E945F290E947E
:10289000A5200E9414020E94BA2880911D0185FF84
:1028A00008C08F77816080931D0180E480931B01B5
:1028B00004C010921D0110921B0184E00E94CD17EC
:1028C00090916C05992309F4ABC08FB7F8941092DE
:1028D0006C058FBF4091220190FF02C084E601C0C9
:1028E000842F91FD865F92FD8A5093FD8F5F94FD4A
:1028F0008150893C08F088EC8A3008F48AE03091F5
:10290000230195FF02C024E601C0232F96FD22E398
:1029100097FD29E1841303C0231709F481C0809334
:102920002201209323011092260110911802309069
:10293000390589E9D82E96E7E92E26E9F22E0EE729
:1029400032E3432E131509F457C0812E912C489C75
:10295000C001499C900D1124FC01E75EFD4F5F0111
:10296000CF010E94DC28562E672E782EC92E2D2DE1
:102970003E2D4F2D502F0E942B3A18164CF42D2D22
:102980003E2D4F2D502F6D2D7E2D8F2D902F08C059
:10299000252D362D472D5C2D652D762D872D9C2DD3
:1029A0000E946B3AF501668B778B808F918F489CE4
:1029B000C001499C900D11249C01275E3D4F790177
:1029C000F90182A093A0A4A0B5A0A50194016689F5
:1029D0007789808D918D0E942B3A18162CF4F7017F
:1029E000868A978AA08EB18E1F5F103109F410E09D
:1029F000D52C73010C2DA6CF8D2D9E2DAF2DB02F74
:102A00008093130290931402A0931502B0931602C0
:102A10000E941B2080911802809317020E94702947
:102A200090916D05992309F448C08FB7F8941092DE
:102A30006D058FBF2091240190FF02C084E601C084
:102A4000822F91FD865F92FD8A5093FD8F5F94FDEA
:102A50008150893C08F088EC8A3008F48AE08217BB
:102A600049F020911F01286020931F0180932401C9
:102A70001092260180911B0195FF0DC0803159F401
:102A800020912501211102C022E003C020FF03C0D4
:102A9000246020932501907C81F0882311F08871B7
:102AA00061F01091890116FF02C01F7B01C0106404
:102AB000812F0E94C1021093890180911B018C7F9C
:102AC00011F00E947418A4960FB6F894DEBF0FBEE2
:102AD000CDBFDF91CF911F910F91FF90EF90DF90CD
:102AE000CF90BF90AF909F908F907F906F905F90AE
:102AF0004F903F900895CF92DF92EF92FF921F93F5
:102B0000CF93DF930E944E1180911D01882309F419
:102B1000F6C00E944F29009771F4C09189018091FD
:102B20008A01C82BC0908C01D0908D01E0908E015D
:102B3000F0908F0106C0FC01C189C6A4D7A4E0A80B
:102B4000F1A88091710181FF03C080E20E94B51756
:102B5000DC2FD07311E0C07490911D01992309F40A
:102B6000CEC080911C018111CAC090FFC5C0809168
:102B70001B01282F207C09F474C092FD12C0109212
:102B8000250140E050E0BA0180E00E94382380E057
:102B90000E94C10290911D019D7F946090931D0140
:102BA000ABC08038E1F486EA92E00E94AB288FE067
:102BB00092E00E94AB280E94802840E050E0BA01D9
:102BC00080E00E94382380E00E94C1020E946F20B2
:102BD00080911C01811193C00E944E11F9CF803465
:102BE00019F49F7D90931D0180911D0183FF84C086
:102BF00090918A019923C1F081FD16C080917101E5
:102C000081FF06C080911F01886080931F010CC066
:102C1000B701A6018D2F0E94382341E060E070E0EB
:102C200080E890E40E94BB2A80918901882371F09A
:102C300080911D0181FD0AC08C2F0E94C10241E0DC
:102C400060E070E080E89FE30E94BB2A90911D0144
:102C500091FD52C0906190931D0182E00E94D717B0
:102C60004BC0909125019923C9F191FF0DC080912E
:102C70008A018823B1F040E050E0BA0180E00E9470
:102C800038231093250138C09C70B1F180918A01DE
:102C900081110AC08091250183FF03C082E00E9458
:102CA000D7171092250128C086EA92E00E94AB282F
:102CB00088E192E00E94AB280E94802880917101F7
:102CC00081FF06C080911F01886080931F01E2CFC1
:102CD000B701A6018D2F0E943823DCCF80911F0100
:102CE00083FF0AC0B701A6018D2F0E94382380916F
:102CF0001F01877F80931F010E944E112DCFDF910E
:102D0000CF911F91FF90EF90DF90CF9008950E9498
:102D100087100E947B1580911C01811108C00E94C0
:102D20004F29892BB1F780911B01883091F30895C9
:102D30002091710120FF08C02BE832E441E25DE3FD
:102D40000E946B3A44E001C043E00C94A1108093D0
:102D5000B300811104C08091B0008F7703C08091CF
:102D6000B00080688093B00008954F925F926F9298
:102D70007F928F929F92AF92BF92CF92DF92EF920B
:102D8000FF92CF936B017C01C091240180906D0173
:102D900090906E01A0906F01B09070014090690119
:102DA00050906A0160906B0170906C01A3019201D8
:102DB000C501B4010E942B3A87FF1AC06C2F70E046
:102DC00080E090E00E94BD382AE037ED43E25CE30A
:102DD0000E946B3A9B01AC01C701B6010E946B3A9D
:102DE0006B017C01A30192010E942B3A87FD0AC06E
:102DF000409228015092290160922A0170922B0181
:102E00008FEF47C0A5019401C701B6010E940938A0
:102E10001816E4F020E030E0A901C701B6010E94D5
:102E20000938811109C010922801109229011092CD
:102E30002A0110922B012DC0809228019092290125
:102E4000A0922A01B0922B0181E023C0C0922801F8
:102E5000D0922901E0922A01F0922B01A501940160
:102E6000C701B6010E94133720916E0530916F059E
:102E700040917005509171050E946B3A0E94F8389C
:102E800020E030E040E85FE30E9414370E948C3875
:102E9000862FCF91FF90EF90DF90CF90BF90AF90B3
:102EA0009F908F907F906F905F904F900895CF93F9
:102EB000DF93C3E1D7E08991882319F00E94DB26D4
:102EC000FACFDF91CF910895CF93DF9321E5829FD1
:102ED000C0011124EC01DD5F40E550E0BE0183E15B
:102EE00097E00E941A02892B69F4109213070E943E
:102EF000871640E550E063E177E0CE010E94820250
:102F000080E001C081E0DF91CF910895CF93DF93FE
:102F1000C0E08C2F0E94641781110EC0109213071D
:102F20008EE30E94DB260E9457178AE30E94DB266D
:102F300087E00E94182712C080911307882371F040
:102F40000E94CE02D82F8EE30E94DB260E945717E4
:102F50008AE30E94DB268D2F0E942427C13011F0C6
:102F6000C1E0D7CFDF91CF9108952FB7F89490911A
:102F70006D05892B80936D052FBF08952FB7F894A9
:102F800090916C05892B80936C052FBF08959FB796
:102F9000F89480936B059FBF08952FB7F894909194
:102FA0006A058095892380936A052FBF08952FB7FE
:102FB000F89490916A05892B80936A052FBF089534
:102FC000AF92BF92CF92DF92EF92FF920F931F9337
:102FD000CF93DF9300D000D0CDB7DEB75B012CE2FA
:102FE000E22E21E0F22E8C016B018CE0C80ED11C88
:102FF000F50161917191819191915F01F7012191A9
:103000003191419151917F0129833A834B835C83B4
:103010000E94BD3829813A814B815C810E9413381E
:10302000F80161937193819391938F01AC14BD0466
:10303000F9F60F900F900F900F90DF91CF911F91A5
:103040000F91FF90EF90DF90CF90BF90AF900895D9
:103050000E94871610922701089596B1892F8770D4
:1030600049F0892F8095817091FF826092FD03C0A5
:103070008460089580E008951F920F920FB60F921A
:1030800011242F933F934F935F936F937F938F936D
:103090009F93AF93BF93EF93FF930E942D188823C4
:1030A00091F080FF03C00E94FF2A0DC082FF04C080
:1030B00080916A05826005C081FF05C080916A0524
:1030C000886080936A05FF91EF91BF91AF919F91C6
:1030D0008F917F916F915F914F913F912F910F90C1
:1030E0000FBE0F901F9018952F923F924F925F92B4
:1030F0006F927F928F929F92AF92BF92CF92DF9208
:10310000EF92FF920F931F93CF93DF93CDB7DEB76C
:10311000EE970FB6F894DEBF0FBECDBF80911F01B2
:1031200080FD70C79091980580919905981709F4D2
:1031300069C78091210690912206892B09F03BC333
:1031400010911F0112FF09C08091390522E3289FC9
:10315000C0011124875E9D4F02C00E944F299093A9
:103160002206809321062090210630902206211409
:10317000310409F447C700913B05902F917000FF7F
:1031800003C010923B05FEC080913A058F5F8530E9
:1031900009F0982F90933A05E92EF12C32E13E9DEB
:1031A000F0013F9DF00D1124E953FA4FF093C6054D
:1031B000E093C505D10150968C915097808B4D912D
:1031C0005D916D917C91DB01CA0123E0880F991F0D
:1031D000AA1FBB1F2A95D1F780839183A283B38353
:1031E000D10114964D915D916D917C911797DB0102
:1031F000CA0133E0880F991FAA1FBB1F3A95D1F768
:1032000084839583A683B783D10118964D915D91F0
:103210006D917C911B97DB01CA0143E0880F991FD8
:10322000AA1FBB1F4A95D1F780879187A287B387D2
:10323000D1011C964D915D916D917C911F97DB01A1
:10324000CA0153E0880F991FAA1FBB1F5A95D1F7D7
:1032500084879587A687B787F101648575858685FC
:1032600097850E94BB386093400570934105809319
:10327000420590934305D1015E962D913D914D916C
:103280005C9191970E9413389B01AC0160934405B7
:1032900070934505809346059093470560E070E084
:1032A00080EA9FE30E9413386093480570934905B4
:1032B00080934A0590934B0510923C0510923D0572
:1032C00010923E0510923F0511FD02C003FF1DC084
:1032D0006091590570915A0580915B0590915C054C
:1032E0006093510570935205809353059093540554
:1032F0009B01AC010E946B3AF101628B738B848B52
:10330000958B077F00933B0511C0D10152966D91BB
:103310007D918D919C9155970E940A3B6093510538
:10332000709352058093530590935405B2E1BE9D6E
:10333000C001BF9D900D1124FC01E953FA4F7F019C
:10334000118A8091710181FF1DC0D10151968C912C
:10335000519785FF17C09A962D913D914D915C91A3
:103360009D9760E070E080E89FE30E9413386093CF
:10337000650570936605809367059093680521E065
:10338000F701218B10924D0510924E0510924F05BA
:1033900010925005D1015A968D919D910D90BC913E
:1033A000A02D89839A83AB83BC839C01AD0160E02F
:1033B00070E080E09FE30E9413384B015C01F10153
:1033C000468C578C60A071A011FF4BC0F2E0F093C7
:1033D0004C05D1015296CD90DD90ED90FC90559723
:1033E000A70196010E946B3A9B01AC01C301B20197
:1033F0000E9413374B015C0120E030E0A9010E94DC
:10340000093887FF1DC029813A814B815C81CA013F
:10341000B9010E941437A30192010E946B3A9B01EB
:10342000AC01C701B6010E9413370E940A3B6093AA
:10343000590570935A0580935B0590935C05B8C15C
:1034400080924D0590924E05A0924F05B092500586
:103450001092590510925A0510925B0510925C0566
:10346000A7C110924C0540925D0550925E05609296
:103470005F057092600512FF0CC010925905109202
:103480005A0510925B0510925C05C12CD12C760177
:1034900024C0E0911802EF5FE03109F4E0E0809190
:1034A0003905E81759F0B2E3BE9FF0011124E75E39
:1034B000FD4FC288D388E488F58803C0C12CD12C85
:1034C0007601C701B6010E940A3B609359057093CB
:1034D0005A0580935B0590935C05C1010E94DC282E
:1034E000698B7A8B8B8B9C8B9B01AC010E946B3A16
:1034F0006D837E838F839887D10152962D913D9164
:103500004D915C91559729873A874B875C879B0142
:10351000AC0169857A858B859C850E942B3A1816AB
:103520000CF070C02D813E814F81588569857A8568
:103530008B859C850E9413379B01AC01C501B401AA
:103540000E946B3A9B01AC01C301B2010E94133788
:1035500060935D0570935E0580935F0590936005B1
:1035600020E030E0A9010E94093818163CF1B2E0D1
:10357000B0934C0529813A814B815C81CA01B90124
:103580000E941437A30192010E946B3A9B01AC0187
:1035900069857A858B859C850E9413370E940A3B3A
:1035A0006093590570935A0580935B0590935C0571
:1035B00080913B05886080933B05FAC0A701960186
:1035C0006D817E818F8198850E9413379B01AC01AC
:1035D000C501B4010E946B3A609361057093620566
:1035E000809363059093640529893A894B895C89A6
:1035F0002093550530935605409357055093580531
:1036000033E0BBC0A701960169857A858B859C85CF
:103610000E9413379B01AC01C501B4010E946B3AB3
:103620009B01AC01C301B2010E94143720E030E0DD
:1036300040E05FE30E946B3A6D877E878F87988BAF
:1036400020E030E0A9010E942B3A18160CF098C037
:10365000A30192016D857E858F8598890E94093826
:1036600087FF8AC0A70196016D817E818F81988531
:103670000E9413379B01AC01C501B4010E946B3A53
:103680006093610570936205809363059093640570
:103690002D853E854F8558890E94093887FF3BC09C
:1036A00089899A89AB89BC89809355059093560581
:1036B000A0935705B09358052D813E814F815885C1
:1036C00069857A858B859C850E940938811104C0A3
:1036D00091E090934C056CC029853A854B855C85BB
:1036E0006D817E818F8198850E9413379B01AC018B
:1036F000C501B4010E946B3A9B01AC01C301B20148
:103700000E94133760935D0570935E0580935F059B
:10371000909360054DC02D853E854F855889209337
:103720005D0530935E0540935F05509360052093DF
:1037300061053093620540936305509364052981C8
:103740003A814B815C81CA01B9010E9414372D85F1
:103750003E854F8558890E946B3AA70196010E94C9
:1037600014370E940A3B6093550570935605809369
:103770005705909358051CC032E030934C0518C093
:1037800010925D0510925E0510925F051092600523
:103790008091590590915A05A0915B05B0915C0507
:1037A0008093550590935605A0935705B0935805FF
:1037B000186010931F018091C405482F50E05A876C
:1037C000498787E0849FF001859FF00D1124E6561C
:1037D000FA4F80913A058483A0912106B091220688
:1037E000BEAFADAF5E96BC91BEA3EDADFEADF78DA5
:1037F000FFA3ADADBEAD9096BC91B8A7EDADFEAD4B
:10380000F1A1F9A7209148053091490540914A0559
:1038100050914B056EA17FA18B2F9F2F0E941337D4
:103820006AAB7BAB8CAB9DAB20E030E0A9010E9482
:10383000093887FF04C01AAA1BAA1CAA1DAA209136
:103840005D052D8330915E053D8740915F05498B75
:10385000509160055D8B809155058A8F909156053A
:103860009B8FA0915705AC8FB0915805BD8F60908C
:103870005105709052054090530550905405E091C9
:103880006105EAA7F0916205FBA7209163052CA7CB
:10389000309164053DA740914C05498350914D05F9
:1038A0005EA780914E058FA790914F0598ABA09190
:1038B0005005A9ABB0915905BEABE0915A05EFABED
:1038C000F0915B05F8AF20915C0529AF2EA03FA0D9
:1038D00008A519A58EE3C82E83ECD82E8EE2E82E1B
:1038E00089E3F82E1E8A1F8A188E198ECE8EDF8EDF
:1038F000E8A2F9A29981913009F4E7C008F474C0F4
:10390000ADADBEAD5A962D913D914D915C915D97B7
:10391000933009F009C1C701B6010E946B3A4B010F
:103920005C0120E030E040E05FE30E946B3A9B01E5
:10393000AC01B301C2010E9413379B01AC01C70166
:10394000B6010E946B3A6AA37BA38CA39DA39B0143
:10395000AC01B101C8010E9413371B018C012D81FC
:103960003D8549895D890E94093887FD0BC020E0AB
:1039700030E0A9016AA17BA18CA19DA10E94093818
:1039800018165CF12D813D8549895D896EA17FA165
:1039900088A599A50E9413379B01AC010E9414379A
:1039A0006B017C012A8D3B8D4C8D5D8DB301C20175
:1039B0000E9414379B01AC01C701B6010E94133865
:1039C0006B017C016A8C7B8C4C8C5D8C2D803D84E2
:1039D00009891D89B1E0B98311C1A5019401B30121
:1039E000C2010E9413376EC0EDADFEAD228D338D46
:1039F000448D558DC701B6010E946B3A4B015C01A5
:103A000020E030E040E05FE30E946B3A9B01AC01B4
:103A1000B301C2010E9414379B01AC01C701B6017A
:103A20000E946B3A9B01AC01B101C8010E9413379F
:103A30001B018C012D813D8549895D890E940938D2
:103A400087FF3AC02D813D8549895D896EA17FA19F
:103A500088A599A50E9413379B01AC010E941437D9
:103A60006B017C012A8D3B8D4C8D5D8DB301C201B4
:103A70000E9414379B01AC01C701B6010E941338A4
:103A80006B017C012AA53BA54CA55DA56D817D85BB
:103A900089899D890E940938811103C0F2E0F98368
:103AA00002C021E029836A8C7B8C4C8C5D8C2D803C
:103AB0003D8409891D89A2C0A5019401B301C201F9
:103AC0000E9414373B012C0199C0A70196016A8D11
:103AD0007B8D8C8D9D8D0E946B3A9B01AC01B10159
:103AE000C8010E9413375B014C012AA53BA54CA5D8
:103AF0005DA50E94093887FF7FC02AA53BA54CA57C
:103B00005DA5B101C8010E9413372A8D3B8D4C8DF4
:103B10005D8D0E9413386B017C012AA43BA40CA587
:103B20001DA532E039836AC0C701B6010E946B3A15
:103B30004B015C019B01AC01B301C2010E942B3A15
:103B400018169CF520E030E040E05FE3C501B401C9
:103B50000E946B3A9B01AC01B301C2010E94133772
:103B60009B01AC01C701B6010E946B3A9B01AC01FD
:103B7000B101C8010E9413376AA37AAF8BAF9CAF23
:103B80002EA53FA548A959A90E942B3A18166CF4F6
:103B9000A5019401B301C2010E9413373B012C011E
:103BA0002AA03AAC0BAD1CAD29C02EA53FA548A953
:103BB00059A9B101C8010E9413379B01AC010E94B1
:103BC00014376B017C012EA93FA948AD59ADB30153
:103BD000C2010E9414379B01AC01C701B6010E94CB
:103BE00013386B017C016EA87FA848AC59AC2EA499
:103BF0003FA408A919A902C015018401A7019601D3
:103C00006E897F89888D998D0E9414376E8B7F8B8A
:103C1000888F998F2E8D3F8D48A159A10E94093818
:103C200087FF09C02E893F89488D598D6E8D7F8D04
:103C300088A199A131C02AA93BA94CA95DA9B101CC
:103C4000C8010E942B3A1816ACF0C301D201809330
:103C5000510590935205A0935305B0935405B98133
:103C6000B0934C05E091C505F091C605918991117D
:103C700034C02FC02EE333EC4EE259E36E8D7F8DBE
:103C800088A199A10E9414376E8F7F8F88A399A372
:103C90002E893F89488D598D0E9413376B017C0115
:103CA0002EA53FA548A959A9B101C8010E942B3AE8
:103CB00018160CF41FCEC301D201809351059093C6
:103CC0005205A0935305B0935405E981E0934C0548
:103CD000C9CF80911F0183FF3FC0ADADBEAD5196EE
:103CE0008C915197807349F19E96CD90DD90ED9027
:103CF000FC90D1979923D1F020916505309166050C
:103D00004091670550916805609151057091520589
:103D100080915305909154050E946B3A9B01AC0130
:103D2000C701B6010E946B3A6B017C01C701B60165
:103D30000E94B516809369050AC01092280110925E
:103D4000290110922A0110922B011092690580918D
:103D50001F01877F80931F0127E0E985FA852E9F49
:103D6000A0012F9F500D1124CA0186569A4F9E83A1
:103D70008D8380916905AD81BE8116968C932091CB
:103D80004405309145054091460550914705B101E4
:103D9000C8010E946B3A2B013C010E94F2376B0173
:103DA0007C016091400570914105809142059091A0
:103DB00043050E94F2374B015C01A70196010E9466
:103DC00013370E948C3869837A838B839C83298183
:103DD0003A81ED81FE8131832083232B41F4809150
:103DE0001F0181FF04C0816080931F010BC12091DE
:103DF0003C0530913D0540913E0550913F056E894F
:103E00007F89888D998D0E9414376D837E838F837F
:103E10009887A3019201C501B4010E9413379B0149
:103E2000AC016D817E818F8198850E9413384B0192
:103E30005C0120EC31EE44E65EE40E946B3A0E94A5
:103E4000F2370E948C38603D57E075078105910577
:103E500060F427E0A985BA852A9FF0012B9FF00D19
:103E60001124E656FA4F158254C0603A3FE07307BA
:103E70008105910568F4A7E049855A85A49FF00162
:103E8000A59FF00D1124E656FA4FB1E0B5831FC08F
:103E90006034EFE17E078105910568F447E02985EC
:103EA0003A85429FF001439FF00D1124E656FA4FE8
:103EB00052E055830CC027E0A985BA852A9FF001FE
:103EC0002B9FF00D1124E656FA4F33E03583A7E01F
:103ED00049855A85A49FF001A59FF00D1124E6564F
:103EE000FA4F2581022E04C09695879577956795A0
:103EF0000A94D2F749815A8102C0440F551F2A956E
:103F0000E2F7518340836115710551E08507910502
:103F100068F427E0A985BA852A9FF0012B9FF00D50
:103F20001124E656FA4F7383628304C04FEF5FEFAC
:103F300053834283809199058093C4058F5F8630B7
:103F400019F08093990502C010929905E09121061D
:103F5000F0912206C101D801868F978FA0A3B1A34B
:103F6000C0924005D0924105E0924205F09243058F
:103F7000A3019201C701B6010E941337A501940164
:103F80000E946B3A60933C0570933D0580933E051B
:103F900090933F0520914D0530914E0540914F057E
:103FA00050915005B101C8010E9409388111BAC869
:103FB00020E030E0A901B101C8010E942B3A9091A4
:103FC0001F01181614F092FF04C0916090931F0116
:103FD00019C0109222061092210690911802809129
:103FE0003905891709F49EC881E0890F803109F4E9
:103FF00080E020911702921302C0809317028093F1
:10400000180290C8EE960FB6F894DEBF0FBECDBF73
:10401000DF91CF911F910F91FF90EF90DF90CF90A4
:10402000BF90AF909F908F907F906F905F904F90D8
:104030003F902F900895CF93DF93C0912106D091A8
:1040400022062097C9F080913B05816080933B0553
:1040500060915105709152058091530590915405DE
:104060009B01AC010E946B3A6A8B7B8B8C8B9D8B86
:104070001092220610922106DF91CF91089580912F
:104080005D01682F90E020915E01422F80FD94E059
:10409000822F817020FD80E261FD986041FD806487
:1040A00062FD906142FD8068909372058093730574
:1040B00008951F920F920FB60F9211248F939F9322
:1040C0008BB1909172059C71837E892B8BB915BC45
:1040D0009F918F910F900FBE0F901F901895809118
:1040E0006F008D7F80936F0080918100887F816059
:1040F000809381001092740580915F0190911B0163
:104100008F3F39F420916B05211103C0903881F461
:1041100002C0943069F090E0009741F0EFE9FFE0D1
:104120003197F1F700C000000197F6CF81E001C0A0
:1041300080E09091710192FF02C091E0892788236D
:1041400011F0289A089528980895CF93DF930E943C
:104150006F2080E3EAE3F5E0DF011D928A95E9F73D
:10416000C5E7D5E083E2FE0111928A95E9F7109246
:10417000220610922106109298051092C40581E043
:1041800080939905109274050E943F2080917305D9
:104190008F878BB1837E90917205892B8BB98BB100
:1041A0008F7190917305892B8BB9DF91CF91089511
:1041B0001F920F920FB60F9211242F933F934F939C
:1041C0005F936F937F938F939F93AF93BF93EF937F
:1041D000FF9380917405811122C28BB19091840567
:1041E000907E8F71892B8BB98BB1837E90918305E3
:1041F000892B8BB98091820586BD82E085BD81E0E7
:104200008093740578948091960590919705892BF9
:1042100009F0BFC0809198059091C405981709F4E2
:10422000A4C0E09198052E2F30E087E0E89FF001D0
:104230001124E656FA4FF0939705E0939605828194
:1042400093819093890080938800808191819093DD
:10425000920580939105E481809193058E1761F119
:10426000E093930582E1E89FF0011124E953FA4FAE
:10427000F0939505E093940584859585A685B7858B
:10428000B695A7959795879580937D0590937E0524
:10429000A0937F05B09380058093790590937A056C
:1042A000A0937B05B0937C0580937505909376056C
:1042B000A0937705B0937805A0919405B0919505EA
:1042C0009091730550968C9150978927809384051F
:1042D00087E0829FF001839FF00D1124E656FA4F8C
:1042E00025814D915D916D917C911397022E04C0B3
:1042F00076956795579547950A94D2F7409385052B
:1043000050938605609387057093880514964D91A8
:104310005D916D917C911797022E04C076956795FB
:10432000579547950A94D2F74093890550938A058B
:1043300060938B0570938C0518968D919D910D90CF
:10434000BC91A02D04C0B695A795979587952A9501
:10435000D2F780938D0590938E05A0938F05B0932F
:10436000900586810E94A71614C00E946F20E091DC
:104370009405F09195058189882339F01092B30056
:104380008091B0008F778093B00084E00E94D717AF
:1043900046C180911A018130B1F486B1807290914A
:1043A0000101891781F010921A018CE0E2E0F1E03E
:1043B000AEE0B1E001900D928A95E1F780916A0537
:1043C000806480936A051092830540918505509121
:1043D000860560918705709188058091750590919B
:1043E0007605A0917705B0917805840F951FA61FDB
:1043F000B71F8093750590937605A0937705B093CA
:104400007805E0919405F09195054485558566857C
:104410007785481759076A077B0768F524E02093DA
:1044200083054485558566857785841B950BA60B8A
:10443000B70B8093750590937605A0937705B0939D
:10444000780520898091020190910301A0910401D7
:10445000B091050125FF04C00197A109B10903C06E
:104460000196A11DB11D8093020190930301A093B9
:104470000401B09305014091890550918A0560912E
:104480008B0570918C058091790590917A05A091AA
:104490007B05B0917C05840F951FA61FB71F8093E5
:1044A000790590937A05A0937B05B0937C054485AC
:1044B000558566857785481759076A077B0778F51C
:1044C0002091830528602093830544855585668562
:1044D0007785841B950BA60BB70B8093790590937A
:1044E0007A05A0937B05B0937C0520898091060115
:1044F00090910701A0910801B091090126FF04C025
:104500000197A109B10903C00196A11DB11D8093B6
:10451000060190930701A0930801B093090140910F
:104520008D0550918E0560918F0570919005809159
:104530007D0590917E05A0917F05B0918005840F47
:10454000951FA61FB71F80937D0590937E05A093AE
:104550007F05B09380054485558566857785481726
:1045600059076A077B0778F520918305206120931E
:1045700083054485558566857785841B950BA60B39
:10458000B70B80937D0590937E05A0937F05B09334
:104590008005208980910A0190910B01A0910C0166
:1045A000B0910D0127FF04C00197A109B10903C013
:1045B0000196A11DB11D80930A0190930B01A09358
:1045C0000C01B0930D0180911B01843039F490915E
:1045D0002101809183058923809383058091910532
:1045E0009091920501979093920580939105892B64
:1045F00069F41092970510929605809198058F5F47
:1046000080939805863011F4109298059091720568
:104610008091830589278093830510927405FF910B
:10462000EF91BF91AF919F918F917F916F915F912A
:104630004F913F912F910F900FBE0F901F901895A3
:104640008091710182FF02C0289A01C02898809150
:1046500072058093830580915C01880F8450819559
:104660008093820580916F00826080936F0008952F
:1046700090911C01911126C081110EC01092280149
:104680001092290110922A0110922B018091B00002
:104690008F778093B00014C0803111F42D9801C041
:1046A0002D9A9091710191FF05C0803219F440E07C
:1046B00050E0BA01CB01BA010E94B5160E94A716BC
:1046C000109226010895CF93DF93239AC0EBD0E098
:1046D00083E0888384E08093B100259A20916D0166
:1046E00030916E0140916F015091700160916901AC
:1046F00070916A0180916B0190916C010E94133757
:104700009B01AC0160E070E08EE793E40E941338F7
:1047100060936E0570936F0580937005909371059B
:1047200088818F778883DF91CF9108956AE080E058
:1047300090E00E94600245E550E06CE271E081E0AB
:1047400090E00C948202CF92DF92EF92FF92CF938F
:10475000DF93C82F6A017B01843608F441C08CE9DD
:104760008C0F20E0833098F590E0880F991F880F18
:10477000991F223079F0FC01233011F1213019F01A
:10478000E45DFE4F02C0E85CFE4FC082D182E2824F
:10479000F382E5C0EC01CC5BDE4F20E030E040E787
:1047A00052E4C701B6010E946B3A20E030E040E7D6
:1047B00052E40E946B3A688379838A839B83CFC0DB
:1047C000E05BFE4FF7FAF094F7F8F094DECF2F5F3E
:1047D0008A3008F4C8C0243009F4C5C08A50C2CF5A
:1047E000CB01BA010E944E3B0E948C388C2F90E086
:1047F0008132910508F0B7C0FC01E75BFF4F0C94D4
:10480000B63B633008F4B1C060935C01A8C060930C
:104810005F01A5C060935D0102C060935E010E94CC
:104820003F209DC080917101662311F0846095C086
:104830008B7F93C080917101662311F080648DC0DD
:104840008F7B8BC080917101662311F0806801C05D
:104850008F778093710180E00E948F1080C06093F9
:1048600060017DC0C0926101D0926201E09263015B
:10487000F092640174C0C0926501D0926601E0922A
:104880006701F09268016BC080917101662311F09D
:10489000816001C08E7F809371010E9428185FC0E3
:1048A00080917101662321F084FF61C0806255C050
:1048B0008F7D53C080917101662311F0886001C023
:1048C000877F809371010E94FD0149C08091710131
:1048D000662311F0806141C08F7C3FC060937201FC
:1048E0003EC0C0927301D0927401E0927501F092C3
:1048F000760135C0C0927701D0927801E0927901BB
:10490000F0927A012CC070E070937C0160937B017F
:1049100026C0C0927D01D0927E01E0927F01F0928C
:1049200080011DC0C0926901D0926A01E0926B01C2
:10493000F0926C0108C0C0926D01D0926E01E092BD
:104940006F01F09270010E94632309C08091710190
:10495000662311F0826001C08D7F809371010E94F7
:10496000962380E005C083E003C086E001C08AE0B2
:10497000DF91CF91FF90EF90DF90CF900895CF938C
:10498000DF9300D01F92CDB7DEB76A837B83898324
:104990000E94871689812DE0829FC00111244CE07E
:1049A00050E06A817B819E5F0F900F900F90DF91A6
:1049B000CF910C9482021F93CF93DF93182FEB01BA
:1049C0008DE0189FB00111247E5F4CE050E0CE01D5
:1049D0000E941A02892B59F48CE0FE0111928A95EB
:1049E000E9F7BE01812F0E94BF2480E001C081E071
:1049F000DF91CF911F910895EF92FF920F931F9334
:104A0000CF93DF93CDB7DEB72C970FB6F894DEBF08
:104A10000FBECDBF182F80FFE1C08AE080935C01FC
:104A200010925F0110925D0110925E0181E080930F
:104A3000600140E050E060E87FE340936101509303
:104A4000620160936301709364018FE692E1A3E0D9
:104A5000BBE38093650190936601A0936701B093D7
:104A6000680180E090E0AAE7B4E480936901909344
:104A70006A01A0936B01B0936C0110926D011092CA
:104A80006E0110926F01109270011092720180E01D
:104A900090E0A8ECB1E48093730190937401A0932B
:104AA0007501B093760180E090E0AAEFB3E48093C3
:104AB000770190937801A0937901B0937A012AEF5E
:104AC00030E030937C0120937B0140937D01509333
:104AD0007E0160937F017093800122E02093710139
:104AE00040E050E060EA72E440932C0150932D01C5
:104AF00060932E0170932F01409330015093310148
:104B0000609332017093330140E050E06AE773E450
:104B1000409334015093350160933601709337010F
:104B200040E050E06AEF75E440933801509339015A
:104B300060933A0170933B0140933C0150933D01D7
:104B400060933E0170933F01809340019093410137
:104B5000A0934201B093430180E09AEBABEDB9E43E
:104B60008093440190934501A0934601B09347017F
:104B70008093480190934901A0934A01B0934B015F
:104B800080E090EAACE0B7E480934C0190934D0153
:104B9000A0934E01B0934F0180E090E0AAEFB3ECF8
:104BA0008093500190935101A0935201B09353010F
:104BB0008093540190935501A0935601B0935701EF
:104BC00080E090E0A8E4B3EC809358019093590101
:104BD000A0935A01B0935B010E94962311FF10C06D
:104BE000CE0101967C018CE0F70111928A95E9F7DC
:104BF00000E0B701802F0E94BF240F5F0830C9F783
:104C000012FF14C060E080E093E00E94600260E068
:104C100081E093E00E94600260E081E593E00E9401
:104C2000600260E082E593E00E94600213FF0AC028
:104C300060E08EEA93E00E94600260E08FEA93E019
:104C40000E9460022C960FB6F894DEBF0FBECDBF57
:104C5000DF91CF911F910F91FF90EF9008951F92D8
:104C60000F920FB60F9211242F933F934F935F93A0
:104C70006F937F938F939F93AF93BF93EF93FF9324
:104C8000E091C600E13271F028F4E83179F40E9435
:104C9000FF2A56C0EF3321F0EE3741F482E003C023
:104CA00081E001C088E00E94D7174AC0E7FF37C003
:104CB0008E2F90E0FC01E458F109ED31F10508F088
:104CC0003FC0E659FF4F0C94B63B80E2ECCF809199
:104CD0001B0185FF35C080E4E6CF81E00DC082E096
:104CE0000BC084E009C088E007C080E105C080E215
:104CF00003C080E401C080E80E94BE1721C081E0AB
:104D00000BC082E009C084E007C088E005C080E1F4
:104D100003C080E201C080E40E94B51711C0A091D9
:104D2000A50681E08A0F813809F480E09091A406FD
:104D3000891731F0B0E0AD5DB94FEC938093A506D3
:104D4000FF91EF91BF91AF919F918F917F916F9163
:104D50005F914F913F912F910F900FBE0F901F9039
:104D600018951F920F920FB60F9211248F939F9355
:104D7000EF93FF9380911007E82FF0E0E955F94F8A
:104D800090819093C6008F5F893609F480E080930C
:104D900010079091A606891305C08091C1008F7DF0
:104DA0008093C100FF91EF919F918F910F900FBE63
:104DB0000F901F901895E091A60691E09E0F9936EE
:104DC00031F490E004C020916A0524FD0FC02091C9
:104DD00010079217C1F3F0E0E955F94F80839093E3
:104DE000A6068091C10080628093C1000895CF9390
:104DF000DF93EC01688179818A819B810E949816FA
:104E00008CE20E94DB266C817D818E819F810E94D5
:104E100098168CE20E94DB26688579858A859B85B9
:104E2000DF91CF910C94981684E193E00C94AB2819
:104E3000CF93C82F8DE193E00E94AB288C2F0E9466
:104E40008528CF910C941427811104C08FE093E042
:104E50000C94AB280C941827CF92DF92EF92FF921C
:104E60001F93CF93DF931F92CDB7DEB7182F6A0140
:104E70007B0184E229830E94DB26812F0E94852802
:104E80008DE30E94DB262981422FC701B6010E94D3
:104E9000A1100F90DF91CF911F91FF90EF90DF90C5
:104EA000CF900C9414271F93CF93DF931F92CDB70D
:104EB000DEB7182F84E269830E94DB26812F0E94CF
:104EC00085288DE30E94DB266981862F0E94852834
:104ED0000F90DF91CF911F910C941427EF92FF92C6
:104EE0000F931F93CF93DF9360915C0170E080E09C
:104EF0000E94532760915F0170E081E00E94532778
:104F000060915D0170E082E00E94532760915E0134
:104F100070E083E00E9453276091710162FB662775
:104F200060F970E084E00E9453276091710166FB94
:104F3000662760F970E085E00E9453278091710137
:104F4000082E000C990B692F661F6627661F70E0FC
:104F500086E00E9453276091600170E08AE00E9421
:104F600053274091610150916201609163017091FA
:104F7000640123E08BE00E942C2740916501509151
:104F80006601609167017091680123E08CE00E94E6
:104F90002C2760917101617070E08DE00E945327B1
:104FA0006091710165FB662760F970E084E10E9401
:104FB00053276091710163FB662760F970E085E11A
:104FC0000E945327609171016295617070E086E1E3
:104FD0000E9453276091720170E087E10E9453277D
:104FE0004091730150917401609175017091760147
:104FF00023E088E10E942C274091770150917801AD
:105000006091790170917A0123E089E10E942C2757
:1050100060917B0170917C018AE10E94532740914D
:105020007D0150917E0160917F017091800123E0AC
:105030008BE10E942C274091690150916A01609197
:105040006B0170916C0120E08EE10E942C27409151
:105050006D0150916E0160916F017091700120E0BF
:105060008FE10E942C27609171016695617070E05C
:1050700080E20E945327D4E6F12C0CE211E083E099
:10508000E82EED0ECD2F82E0F81691F0E3E0FE164B
:10509000E9F0F1E0FF1631F0F801408151816281C1
:1050A00073811AC0F801448555856685778514C0DB
:1050B00020E030E041E655E4F801608D718D828D8D
:1050C000938D0E941338AB01BC0106C0F80144A1C6
:1050D00055A166A177A1705823E08C2F0E942C2740
:1050E0000C5F1F4FCF5FCE11CECFD65FF394DC386D
:1050F00021F6DF91CF911F910F91FF90EF900895CE
:105100008DE50E94DB260C941427CF93DF93843621
:1051100030F06AE00E94743BC0E3C90F03C0C0E0F6
:105120008A3030F06AE00E94743BD0E3D90F01C0AE
:10513000D0E0805D0E94DB26DD2319F08D2F0E94D8
:10514000DB26CC2329F08C2FDF91CF910C94DB262A
:10515000DF91CF910895CF93DF93FC018491EF010C
:105160002196882321F00E94DB26FE01F7CFDF91F4
:10517000CF910895EBEFF1E0A2E0B1E04D915D91A8
:105180006D917C911397408351836283738314964E
:105190004D915D916D917C91179744835583668302
:1051A000778318968D919D910D90BC91A02D80874D
:1051B0009187A287B3870895BF92CF92DF92EF9233
:1051C000FF920F931F93CF93DF937C01FC0102A505
:1051D00013A5D4A5C5A5818980FF18C060912301BE
:1051E00070E080E090E00E94BD382AE037ED43E2B5
:1051F0005CE30E946B3A9B01AC01B8018D2F9C2FA0
:105200000E946B3A8B01D82FC92F2DC082FD17C089
:105210006091220170E080E090E00E94BD382AE0B9
:1052200037ED43E25CE30E946B3A9B01AC01B801AD
:105230008D2F9C2F0E946B3A8B01D82FC92FF7011D
:10524000B6A0C7A0D0A4F1A42B2D3C2D4D2D5F2DD1
:10525000B8018D2F9C2F0E942B3A181624F40B2D89
:105260001C2DDD2DCF2D20E030E040E85FE3B801BC
:105270008D2F9C2F0E942B3A181624F000E010E08E
:10528000D0E8CFE3B8018D2F9C2FDF91CF911F91F4
:105290000F91FF90EF90DF90CF90BF900895809195
:1052A000180290913905981739F022E3829FC001C6
:1052B0001124875E9D4F089580E090E008958CE171
:1052C000EBEFF1E0DF011D928A95E9F710921802E9
:1052D0001092390581E08093120710921702089509
:1052E0002F923F924F925F926F927F928F929F92F6
:1052F000AF92BF92CF92DF92EF92FF920F931F93E4
:10530000CF93DF93C0913905C11101C0C0E1C150F5
:10531000D0911702CD1709F41BC1EC2EF12C22E31A
:10532000C29F80011124075E1D4FF801A688B7882F
:10533000C08CD18C628D738D848D958D9B01AC0159
:105340000E941437F801268D378D40A151A10E948B
:105350006B3A4B018C019B01AC01B501C6010E9467
:10536000093887FD02C05401680182E38E9DF00177
:105370008F9DF00D1124E75EFD4FC501D601828B94
:10538000938BA48BB58BC11101C0C0E1C150CD1767
:1053900061F022E32E9DC0012F9D900D11249C01F0
:1053A000275E3D4F7901D2E333C080911802D813B4
:1053B0005EC00E941B205BC0AC2EB12CDA9DC001E8
:1053C000DB9D900D1124FC01E75EFD4F6F01C111C3
:1053D00001C0C0E1C15080911802C81302C00E94F0
:1053E0001B20DA9D8001DB9D100D1124075E1D4FEF
:1053F000F80186889788A08CB18CA50194016289F8
:105400007389848995890E940938811106C07601C3
:1054100080911702C813D0CF2AC0F801628D738D16
:10542000848D958D9B01AC010E941437F801268D67
:10543000378D40A151A10E946B3AF701228933892F
:10544000448955890E9414372B013C01A501940120
:105450000E940938F80187FF05C0428A538A648A8E
:10546000758AD5CF828A938AA48AB58AD0CFD09103
:105470001702F2E3DF9F80011124075E1D4FC1E098
:10548000CD0FC03109F4C0E02090390582E3382EF9
:10549000C21509F45BC0CC2ED12C3C9CC0013D9CB4
:1054A000900D11249C01275E3D4F7901F80142883F
:1054B000538864887588F90182889388A488B588A0
:1054C000A5019401C301B2010E94093887FF24C0DD
:1054D000F801628D738D848D958D9B01AC010E94C6
:1054E0001437F801268D378D40A151A10E946B3AE7
:1054F0009B01AC01C301B2010E9414372B013C0196
:10550000A50194010E94093887FF06C0F701428A6D
:10551000538A648A758ADC2F3C9CF0013D9CF00D17
:105520001124E75EFD4F26893789408D518D6289B0
:105530007389848995890E940938811101C0DC2F03
:10554000CF5FC03109F4C0E08701A2CFD09317022A
:10555000DF91CF911F910F91FF90EF90DF90CF904F
:10556000BF90AF909F908F907F906F905F904F9083
:105570003F902F9008951F93CF93DF93142F209186
:105580001107213071F420E030E04AE754E40E9432
:105590006B3A0E94F2370E948C38262FC22FD72FE9
:1055A00018C020E030E040EA51E4F1CF80911C01C6
:1055B000811121C0111110C00E947B15809111072B
:1055C000813089F48FE99FE00197F1F700C0000076
:1055D0002197209759F70FC00E944E1180911D010D
:1055E00081FFECCF08C09FEF20E782E09150204080
:1055F0008040E1F7EBCFDF91CF911F91089580912B
:105600006A0584FD1FC080E10E94D7178091B00019
:105610008F778093B000439890911B01892F8C72F3
:1056200021F480911F01867069F0943031F48091EB
:105630006B05811105C086E001C083E00E94C71799
:105640000C946F2008958F929F92AF92BF92CF9249
:10565000DF92EF92FF920F931F93CF93DF937C0122
:105660006B01DC01EC91F0E0ED5EF84F9081EF0111
:105670009D3221F42296918101E007C09B3211F006
:10568000219602C02296918100E0912CF0E010E07A
:1056900020E030E0A9015E01E0EDE90FEA30D0F44E
:1056A000FF5FF93098F491101150A5E0B0E00E942E
:1056B000BC3BDC01CB01880F991FAA1FBB1F9C01BB
:1056C000AD012E0F311D411D511D0AC0911008C0A2
:1056D0001F5F06C0EE3F41F4911006C099249394D9
:1056E0002196D5019C91D7CFFF2309F44FC0CA0161
:1056F000B9010E94BB384B015C0120E030E0A901F8
:105700000E940938882349F11F3F64F42AE037EDED
:1057100043E25CE3C501B4010E946B3A4B015C01BA
:105720001E5FF2CF1F3F59F42DEC3CEC4CEC5DE3D7
:10573000C501B4010E946B3A4B015C010EC01123FC
:1057400061F020E030E040E251E4C501B4010E9484
:105750006B3A4B015C011150F2CF002351F0B7FAC4
:10576000B094B7F8B094F60180829182A282B3829D
:1057700006C0D6018D929D92AD92BC921397C351F3
:10578000D740C150F701C08381E001C080E0DF91C4
:10579000CF911F910F91FF90EF90DF90CF90BF902E
:1057A000AF909F908F9008952F923F924F925F926B
:1057B0006F927F928F929F92AF92BF92CF92DF9221
:1057C000EF92FF920F931F93CF93DF93CDB7DEB786
:1057D000A1970FB6F894DEBF0FBECDBF90911C010C
:1057E0009111C3C18D8F3E012DE0620E711C89E0C5
:1057F000D3011D928A95E9F786E08D8B20E5A22ED4
:1058000021E0B22EFE0176964F0100E010E0C12C9F
:10581000D12C76013D8D232F30E03C8F2B8F902FA4
:105820000115110521F0013021F080E103C084E071
:1058300001C088E0D4018D934D01EB8DFC8D02C039
:10584000F595E7959A95E2F7E0FF17C020E030E084
:1058500040EC5FEBD5016D917D918D919C910E9403
:105860006B3A1B012C019B01AC01C701B6010E94E0
:105870002B3A181614F0610172010F5F1F4FB4E04C
:10588000AB0EB11C0330110551F62090770130901A
:1058900078014090790150907A0194E0A92EBB24C0
:1058A000B39462E071E0CE0101960E94E01780910E
:1058B0007201882E912CFE01319622E031E03A8F60
:1058C000298F890120E030E060E070E0D701C60157
:1058D000B0588E8F9F8FA8A3B9A34B8D5C8D022EDD
:1058E00002C0559547950A94E2F740FF2BC06F5FC1
:1058F000D8011D921D921D921C921397A401022E95
:1059000002C0559547950A94E2F740FF03C0BB20BB
:1059100019F007C0BB2029F0C082D182E282F38255
:1059200008C08E8D9F8DA8A1B9A180839183A28389
:10593000B38346E150E04C0F5D1F420F531FDA0165
:105940004C91742B2F5F3F4F34960C5F1F4F2330C9
:10595000310519F6172F70E080E090E00E94BB3807
:105960000E940A3B9B01AC0110932101C201B101CD
:105970000E946B3A6D877E878F87988BB301CE012B
:1059800001960E94E933B4E0B0931F010E9474189D
:105990000E942023BB20E9F00E94E801FE017696D8
:1059A00020E030E090E06191462F412359F0AC01B6
:1059B000022E02C0559547950A94E2F740FF02C0B7
:1059C000609516232F5F3F4F2330310561F7109309
:1059D00021010E94741880916A05847339F1109135
:1059E0006A0514FF03C086E00E94C71715FF03C0B5
:1059F00087E00E94C717B11007C00E94E801ED8D33
:105A00008E2339F088E003C012FF03C089E00E94B2
:105A1000C71780916B05882329F00E94FF2A0E94F6
:105A20007B15A3C084E00E94CD1704C0812F8C7128
:105A300009F0B0CF0E94A52000917B0110917C015C
:105A40000115110549F08FE99FE00197F1F700C0BA
:105A5000000001501109F4CF91E0B926C9F020E00F
:105A600030E040EA50E460917D0170917E018091C8
:105A70007F01909180010E946B3A6B017C01209024
:105A8000730130907401409075015090760110C000
:105A9000C0907D01D0907E01E0907F01F090800168
:105AA00020907701309078014090790150907A01F0
:105AB000AA94A110F6CEC0907201D12C80907D01E5
:105AC00090907E01A0907F01B0908001240135016B
:105AD00077FA709477F870948CE2E82E81E0F82ED3
