:020000040800F2
:10000000680600200D030008150300081703000808
:10001000190300081B0300081D030008000000006E
:100020000000000000000000000000001F030008A6
:100030002103000800000000230300082503000836
:10004000270300082703000827030008000000001A
:10005000000000002703000827030008270300080A
:1000600027030008000000002703000827030008FA
:1000700027030008000000002703000827030008EA
:1000800027030008270300080000000027030008DA
:10009000270300080000000000000000000000002E
:1000A000000000000000000000000000270300081E
:1000B0002703000827030008270300082703000878
:1000C00000F002F800F03AF80AA090E8000C824430
:1000D0008344AAF10107DA4501D100F02FF8AFF20D
:1000E000090EBAE80F0013F0010F18BFFB1A43F016
:1000F000010318479C030000BC030000103A24BF12
:1001000078C878C1FAD8520724BF30C830C144BF7C
:1001100004680C60704700000023002400250026BE
:10012000103A28BF78C1FBD8520728BF30C148BF5A
:100130000B6070471FB51FBD10B510BD00F06DF905
:100140001146FFF7F7FF00F009F800F08BF903B450
:10015000FFF7F2FF03BC00F093F90000012400F068
:1001600025F800F095F8204600F05AF819E00D48FF
:10017000006800F0040038B9601CC4B2042C00DD33
:100180000124204600F04CF8074909684FF47A62D0
:10019000B1FBF2F1921001FB02F000E0401E0028DA
:1001A000FCD1E4E700800B40000000203648C06925
:1001B00040F480003449C8613448406840F00F0082
:1001C000324948600846006920F00F00086108467F
:1001D000006920F4702008610846C06840F00F00F4
:1001E000C8600846806820F0FF00886008464069C3
:1001F00020F00F0048610846406920F470204861F3
:100200000846806920F0FF0088610846806940F058
:10021000550088610846C06920F00F00C86170472A
:100220001A49096821F00F01184A1160012806D007
:1002300002280BD0032810D004281CD114E0134945
:10024000096841F00101114A11601BE00F4909687A
:1002500041F002010D4A116014E00C49096841F0B7
:1002600004010A4A11600DE00849096841F00801DB
:10027000064A116006E00549096821F00F01034AAA
:10028000116000BF00BF70470000024000000B403B
:100290001C48C06940F400001A49C8611A48406807
:1002A00020F00400184948600846006920F0040066
:1002B00008610846006920F4802008610846C0688B
:1002C00040F00400C8600846806820F03000886074
:1002D0000846406920F0040048610846406920F45F
:1002E000802048610846806920F030008861084617
:1002F000806940F0100088610846C06920F0040061
:10030000C86170470000024000800B4009488047E8
:1003100009480047FEE7FEE7FEE7FEE7FEE7FEE7E7
:10032000FEE7FEE7FEE7FEE704480549054A064BFF
:1003300070470000CF030008C100000868000020DB
:1003400068060020680200206802002030B52D4CAD
:10035000E46804F00204022C01D12B4800E02A4892
:10036000284CE46804F0010404B140080146254C1F
:10037000E46804F00404042C05D1224C6468C4F33E
:100380000324631C59431F4CE468C4F3012424B1C3
:10039000012C06D0022C13D10DE01B4C1B4D2C6000
:1003A00013E0184CE468C4F30314641CB1FBF4F2CA
:1003B000164C226009E04FF40044144D2C6004E018
:1003C00049F64044114D2C6000BF00BF30BD00B560
:1003D0000F480C49C8610846C0680020C86008463C
:1003E0004068002048600846806800208860084611
:1003F0000069002008610846406900204861FFF755
:10040000A5FF00BD0000024000127A00000000209D
:1004100010000008704770477047754600F02CF8D0
:10042000AE4605006946534620F00700854618B0E1
:1004300020B5FFF779FFBDE820404FF000064FF0F0
:1004400000074FF000084FF0000B21F00701AC4609
:10045000ACE8C009ACE8C009ACE8C009ACE8C00928
:100460008D46704710B50446AFF300802046BDE8C6
:100470001040FFF76CBE00000048704704000020E9
:1004800001491820ABBEFEE72600020070470000BD
:10049000B00400080000002004000000FC00000878
:1004A000B4040008040000206406000018010008DD
:0404B00000127A00BC
:04000005080000C12E
:00000001FF
